{
  "contractName": "Account",
  "abi": [
    {
      "inputs": [
        {
          "name": "name",
          "type": "string"
        }
      ],
      "payable": false,
      "stateMutability": "nonpayable",
      "type": "constructor"
    },
    {
      "constant": true,
      "inputs": [],
      "name": "getAddr",
      "outputs": [
        {
          "name": "",
          "type": "address"
        }
      ],
      "payable": false,
      "stateMutability": "view",
      "type": "function"
    },
    {
      "constant": true,
      "inputs": [],
      "name": "getName",
      "outputs": [
        {
          "name": "",
          "type": "string"
        }
      ],
      "payable": false,
      "stateMutability": "view",
      "type": "function"
    },
    {
      "constant": true,
      "inputs": [],
      "name": "getShared",
      "outputs": [
        {
          "name": "",
          "type": "uint256"
        }
      ],
      "payable": false,
      "stateMutability": "view",
      "type": "function"
    },
    {
      "constant": true,
      "inputs": [],
      "name": "getReceived",
      "outputs": [
        {
          "name": "",
          "type": "uint256"
        }
      ],
      "payable": false,
      "stateMutability": "view",
      "type": "function"
    },
    {
      "constant": true,
      "inputs": [],
      "name": "getScience",
      "outputs": [
        {
          "name": "",
          "type": "uint256"
        }
      ],
      "payable": false,
      "stateMutability": "view",
      "type": "function"
    },
    {
      "constant": false,
      "inputs": [],
      "name": "ShareData",
      "outputs": [],
      "payable": false,
      "stateMutability": "nonpayable",
      "type": "function"
    },
    {
      "constant": false,
      "inputs": [],
      "name": "ReceiveData",
      "outputs": [],
      "payable": false,
      "stateMutability": "nonpayable",
      "type": "function"
    },
    {
      "constant": false,
      "inputs": [],
      "name": "updateScience",
      "outputs": [],
      "payable": false,
      "stateMutability": "nonpayable",
      "type": "function"
    }
  ],
  "bytecode": "0x608060405260006002556000600355600060045534801561001f57600080fd5b5060405161046c38038061046c8339810180604052602081101561004257600080fd5b81019080805164010000000081111561005a57600080fd5b8201602081018481111561006d57600080fd5b815164010000000081118282018710171561008757600080fd5b505080519093506100a192506000915060208401906100ba565b505060018054600160a060020a03191633179055610155565b828054600181600116156101000203166002900490600052602060002090601f016020900481019282601f106100fb57805160ff1916838001178555610128565b82800160010185558215610128579182015b8281111561012857825182559160200191906001019061010d565b50610134929150610138565b5090565b61015291905b80821115610134576000815560010161013e565b90565b610308806101646000396000f3fe60806040526004361061008d5763ffffffff7c010000000000000000000000000000000000000000000000000000000060003504166317d7de7c81146100925780631a05f1531461011c578063227c278314610143578063271bf53f1461015a57806355d0ad181461016f5780636ea95dae14610184578063a74c2bb614610199578063e398a393146101d7575b600080fd5b34801561009e57600080fd5b506100a76101ec565b6040805160208082528351818301528351919283929083019185019080838360005b838110156100e15781810151838201526020016100c9565b50505050905090810190601f16801561010e5780820380516001836020036101000a031916815260200191505b509250505060405180910390f35b34801561012857600080fd5b50610131610282565b60408051918252519081900360200190f35b34801561014f57600080fd5b50610158610288565b005b34801561016657600080fd5b5061013161029b565b34801561017b57600080fd5b506101316102a1565b34801561019057600080fd5b506101586102a7565b3480156101a557600080fd5b506101ae6102b5565b6040805173ffffffffffffffffffffffffffffffffffffffff9092168252519081900360200190f35b3480156101e357600080fd5b506101586102d1565b60008054604080516020601f60026000196101006001881615020190951694909404938401819004810282018101909252828152606093909290918301828280156102785780601f1061024d57610100808354040283529160200191610278565b820191906000526020600020905b81548152906001019060200180831161025b57829003601f168201915b5050505050905090565b60025490565b6003805460010190556102996102a7565b565b60035490565b60045490565b600454600380540203600255565b60015473ffffffffffffffffffffffffffffffffffffffff1690565b60048054600101905556fea165627a7a72305820eb12a5990a93c5163d350706a3f4a1d0020fe0cf8eb8835ecd2996ca750326570029",
  "source": "pragma solidity ^0.5.0;\n\ncontract Account {\n\n        string user_name;\n        address user;\n        uint science_index = 0;\n        uint data_shared = 0;\n        uint data_received = 0;\n\n    constructor(string memory name) public {\n        user_name = name;\n        user = msg.sender;\n    }\n    \n    function getAddr() public view returns (address) {\n        return user;\n    }\n    \n    function getName() public view returns (string memory) {\n        return user_name;\n    }\n    \n    function getShared() public view returns (uint) {\n        return data_shared;\n    }\n    \n    function getReceived() public view returns (uint) {\n        return data_received;\n    }\n    \n    function getScience() public view returns (uint) {\n        return science_index;\n    }\n    \n    function ShareData() public {\n        data_shared += 1;\n        updateScience();\n    }\n    \n    function ReceiveData() public {\n        data_received += 1;\n        updateScience;\n    }\n    \n    function updateScience() public {\n        science_index = data_shared * 3 - data_received;\n    }\n}\n",
  "sourcePath": "/Users/jenniferzhan/Desktop/data_sharing_contract/contracts/Account.sol",
  "compiler": {
    "name": "solc",
    "version": "0.5.0+commit.1d4f565a.Emscripten.clang"
  },
  "schemaVersion": "3.0.1",
  "updatedAt": "2021-06-24T06:11:45.517Z",
  "devdoc": {
    "methods": {}
  },
  "userdoc": {
    "methods": {}
  }
}