{
  "contractName": "BioMedicalDataToken",
  "abi": [
    {
      "constant": true,
      "inputs": [],
      "name": "name",
      "outputs": [
        {
          "name": "",
          "type": "string"
        }
      ],
      "payable": false,
      "stateMutability": "view",
      "type": "function"
    },
    {
      "constant": true,
      "inputs": [],
      "name": "decimals",
      "outputs": [
        {
          "name": "",
          "type": "uint8"
        }
      ],
      "payable": false,
      "stateMutability": "view",
      "type": "function"
    },
    {
      "constant": true,
      "inputs": [],
      "name": "symbol",
      "outputs": [
        {
          "name": "",
          "type": "string"
        }
      ],
      "payable": false,
      "stateMutability": "view",
      "type": "function"
    },
    {
      "inputs": [
        {
          "name": "total",
          "type": "uint256"
        },
        {
          "name": "n",
          "type": "string"
        }
      ],
      "payable": false,
      "stateMutability": "nonpayable",
      "type": "constructor"
    },
    {
      "anonymous": false,
      "inputs": [
        {
          "indexed": true,
          "name": "from",
          "type": "address"
        },
        {
          "indexed": true,
          "name": "to",
          "type": "address"
        },
        {
          "indexed": false,
          "name": "tokens",
          "type": "uint256"
        }
      ],
      "name": "Transfer",
      "type": "event"
    },
    {
      "constant": true,
      "inputs": [],
      "name": "totalSupply",
      "outputs": [
        {
          "name": "",
          "type": "uint256"
        }
      ],
      "payable": false,
      "stateMutability": "view",
      "type": "function"
    },
    {
      "constant": true,
      "inputs": [
        {
          "name": "tokenOwner",
          "type": "address"
        }
      ],
      "name": "balanceOf",
      "outputs": [
        {
          "name": "",
          "type": "uint256"
        }
      ],
      "payable": false,
      "stateMutability": "view",
      "type": "function"
    },
    {
      "constant": false,
      "inputs": [
        {
          "name": "addr",
          "type": "address"
        },
        {
          "name": "n",
          "type": "string"
        }
      ],
      "name": "Register",
      "outputs": [],
      "payable": false,
      "stateMutability": "nonpayable",
      "type": "function"
    },
    {
      "constant": true,
      "inputs": [
        {
          "name": "addr",
          "type": "address"
        }
      ],
      "name": "getName",
      "outputs": [
        {
          "name": "",
          "type": "string"
        }
      ],
      "payable": false,
      "stateMutability": "view",
      "type": "function"
    },
    {
      "constant": true,
      "inputs": [
        {
          "name": "addr",
          "type": "address"
        }
      ],
      "name": "getShared",
      "outputs": [
        {
          "name": "",
          "type": "uint256"
        }
      ],
      "payable": false,
      "stateMutability": "view",
      "type": "function"
    },
    {
      "constant": true,
      "inputs": [
        {
          "name": "addr",
          "type": "address"
        }
      ],
      "name": "getReceived",
      "outputs": [
        {
          "name": "",
          "type": "uint256"
        }
      ],
      "payable": false,
      "stateMutability": "view",
      "type": "function"
    },
    {
      "constant": true,
      "inputs": [
        {
          "name": "addr",
          "type": "address"
        }
      ],
      "name": "getScience",
      "outputs": [
        {
          "name": "",
          "type": "uint256"
        }
      ],
      "payable": false,
      "stateMutability": "view",
      "type": "function"
    },
    {
      "constant": false,
      "inputs": [
        {
          "name": "sharer",
          "type": "address"
        },
        {
          "name": "receiver",
          "type": "address"
        }
      ],
      "name": "transferBioMedicalData",
      "outputs": [
        {
          "name": "",
          "type": "bool"
        }
      ],
      "payable": false,
      "stateMutability": "nonpayable",
      "type": "function"
    },
    {
      "constant": false,
      "inputs": [
        {
          "name": "sharer",
          "type": "address"
        },
        {
          "name": "receiver",
          "type": "address"
        }
      ],
      "name": "incentiveForPublication",
      "outputs": [
        {
          "name": "",
          "type": "bool"
        }
      ],
      "payable": false,
      "stateMutability": "nonpayable",
      "type": "function"
    },
    {
      "constant": false,
      "inputs": [
        {
          "name": "addr1",
          "type": "address"
        },
        {
          "name": "addr2",
          "type": "address"
        },
        {
          "name": "addr3",
          "type": "address"
        },
        {
          "name": "addr4",
          "type": "address"
        },
        {
          "name": "addr5",
          "type": "address"
        }
      ],
      "name": "confirm",
      "outputs": [
        {
          "name": "",
          "type": "bool"
        }
      ],
      "payable": false,
      "stateMutability": "nonpayable",
      "type": "function"
    }
  ],
  "bytecode": "0x608060405234801561001057600080fd5b506040516116f53803806116f58339810180604052604081101561003357600080fd5b81516020830180519193928301929164010000000081111561005457600080fd5b8201602081018481111561006757600080fd5b815164010000000081118282018710171561008157600080fd5b5050600285905533600090815260208190526040902085905592508291506100a99050610163565b60208082528251818301528251829160408301919085019080838360005b838110156100df5781810151838201526020016100c7565b50505050905090810190601f16801561010c5780820380516001836020036101000a031916815260200191505b5092505050604051809103906000f08015801561012d573d6000803e3d6000fd5b503360009081526001602052604090208054600160a060020a031916600160a060020a0392909216919091179055506101739050565b60405161046c8061128983390190565b611107806101826000396000f3fe6080604052600436106100c45763ffffffff7c010000000000000000000000000000000000000000000000000000000060003504166306fdde0381146100c95780630fd8b1ca1461015357806318160ddd146101bc57806326837e9a146101e3578063313ce5671461021e5780633f041faf146102495780635fd4b08a1461028457806365913d70146102b75780636ba0831d146102ea57806370a08231146103af57806395d89b41146103e2578063c1f55c45146103f7578063cd8a21501461042a575b600080fd5b3480156100d557600080fd5b506100de61045d565b6040805160208082528351818301528351919283929083019185019080838360005b83811015610118578181015183820152602001610100565b50505050905090810190601f1680156101455780820380516001836020036101000a031916815260200191505b509250505060405180910390f35b34801561015f57600080fd5b506101a8600480360360a081101561017657600080fd5b50600160a060020a03813581169160208101358216916040820135811691606081013582169160809091013516610494565b604080519115158252519081900360200190f35b3480156101c857600080fd5b506101d16105cf565b60408051918252519081900360200190f35b3480156101ef57600080fd5b506101a86004803603604081101561020657600080fd5b50600160a060020a03813581169160200135166105d5565b34801561022a57600080fd5b50610233610657565b6040805160ff9092168252519081900360200190f35b34801561025557600080fd5b506101a86004803603604081101561026c57600080fd5b50600160a060020a038135811691602001351661065c565b34801561029057600080fd5b506100de600480360360208110156102a757600080fd5b5035600160a060020a0316610841565b3480156102c357600080fd5b506101d1600480360360208110156102da57600080fd5b5035600160a060020a031661093a565b3480156102f657600080fd5b506103ad6004803603604081101561030d57600080fd5b600160a060020a03823516919081019060408101602082013564010000000081111561033857600080fd5b82018360208201111561034a57600080fd5b8035906020019184600183028401116401000000008311171561036c57600080fd5b91908080601f0160208091040260200160405190810160405280939291908181526020018383808284376000920191909152509295506109d7945050505050565b005b3480156103bb57600080fd5b506101d1600480360360208110156103d257600080fd5b5035600160a060020a0316610b0f565b3480156103ee57600080fd5b506100de610b2a565b34801561040357600080fd5b506101d16004803603602081101561041a57600080fd5b5035600160a060020a0316610b61565b34801561043657600080fd5b506101d16004803603602081101561044d57600080fd5b5035600160a060020a0316610bcc565b60408051808201909152600e81527f42696f4d65646963616c44617461000000000000000000000000000000000000602082015281565b600160a060020a0385166000908152602081905260408120546104be90600a63ffffffff610c3716565b600160a060020a0380881660009081526020819052604080822093909355908716815220546104f490600a63ffffffff610c3716565b600160a060020a03808716600090815260208190526040808220939093559086168152205461052a90600a63ffffffff610c3716565b600160a060020a03808616600090815260208190526040808220939093559085168152205461056090600a63ffffffff610c3716565b600160a060020a03808516600090815260208190526040808220939093559084168152205461059690600a63ffffffff610c3716565b600160a060020a0383166000908152602081905260409020556002546105c390603263ffffffff610c3716565b60025595945050505050565b60025490565b600160a060020a0381166000908152602081905260408120546105ff90601e63ffffffff610c3716565b600160a060020a03808416600090815260208190526040808220939093559085168152205461063590601e63ffffffff610c3716565b600160a060020a03841660009081526020819052604090205550600192915050565b600181565b600160a060020a038116600090815260208190526040812054601e111561068257600080fd5b600160a060020a0382166000908152602081905260409020546106ac90601e63ffffffff610c4d16565b600160a060020a0380841660009081526020819052604080822093909355908516815220546106e290601e63ffffffff610c3716565b600160a060020a0380851660008181526020818152604091829020949094558051601e815290519193928616927fddf252ad1be2c89b69c2b068fc378daa952ba7f163c4a11628f55a4df523b3ef92918290030190a3600160a060020a038084166000908152600160205260408082205481517f227c2783000000000000000000000000000000000000000000000000000000008152915193169263227c27839260048084019391929182900301818387803b1580156107a157600080fd5b505af11580156107b5573d6000803e3d6000fd5b505050600160a060020a038084166000908152600160205260408082205481517fe398a39300000000000000000000000000000000000000000000000000000000815291519316935063e398a393926004808301939282900301818387803b15801561082057600080fd5b505af1158015610834573d6000803e3d6000fd5b5060019695505050505050565b600160a060020a038082166000908152600160205260408082205481517f17d7de7c000000000000000000000000000000000000000000000000000000008152915160609491909116926317d7de7c9260048082019391829003018186803b1580156108ac57600080fd5b505afa1580156108c0573d6000803e3d6000fd5b505050506040513d6000823e601f3d908101601f1916820160405260208110156108e957600080fd5b81019080805164010000000081111561090157600080fd5b8201602081018481111561091457600080fd5b815164010000000081118282018710171561092e57600080fd5b50909695505050505050565b600160a060020a0380821660009081526001602090815260408083205481517f271bf53f00000000000000000000000000000000000000000000000000000000815291519394169263271bf53f92600480840193919291829003018186803b1580156109a557600080fd5b505afa1580156109b9573d6000803e3d6000fd5b505050506040513d60208110156109cf57600080fd5b505192915050565b600160a060020a0382811660009081526001602052604090205416156109fc57600080fd5b80610a05610c5f565b60208082528251818301528251829160408301919085019080838360005b83811015610a3b578181015183820152602001610a23565b50505050905090810190601f168015610a685780820380516001836020036101000a031916815260200191505b5092505050604051809103906000f080158015610a89573d6000803e3d6000fd5b50600160a060020a038381166000908152600160209081526040808320805473ffffffffffffffffffffffffffffffffffffffff19169590941694909417909255908190522054610adb906032610c37565b600160a060020a038316600090815260208190526040902055600254610b0890603263ffffffff610c3716565b6002555050565b600160a060020a031660009081526020819052604090205490565b60408051808201909152600381527f424d440000000000000000000000000000000000000000000000000000000000602082015281565b600160a060020a0380821660009081526001602090815260408083205481517f55d0ad180000000000000000000000000000000000000000000000000000000081529151939416926355d0ad1892600480840193919291829003018186803b1580156109a557600080fd5b600160a060020a0380821660009081526001602090815260408083205481517f1a05f153000000000000000000000000000000000000000000000000000000008152915193941692631a05f15392600480840193919291829003018186803b1580156109a557600080fd5b600082820183811015610c4657fe5b9392505050565b600082821115610c5957fe5b50900390565b60405161046c80610c708339019056fe608060405260006002556000600355600060045534801561001f57600080fd5b5060405161046c38038061046c8339810180604052602081101561004257600080fd5b81019080805164010000000081111561005a57600080fd5b8201602081018481111561006d57600080fd5b815164010000000081118282018710171561008757600080fd5b505080519093506100a192506000915060208401906100ba565b505060018054600160a060020a03191633179055610155565b828054600181600116156101000203166002900490600052602060002090601f016020900481019282601f106100fb57805160ff1916838001178555610128565b82800160010185558215610128579182015b8281111561012857825182559160200191906001019061010d565b50610134929150610138565b5090565b61015291905b80821115610134576000815560010161013e565b90565b610308806101646000396000f3fe60806040526004361061008d5763ffffffff7c010000000000000000000000000000000000000000000000000000000060003504166317d7de7c81146100925780631a05f1531461011c578063227c278314610143578063271bf53f1461015a57806355d0ad181461016f5780636ea95dae14610184578063a74c2bb614610199578063e398a393146101d7575b600080fd5b34801561009e57600080fd5b506100a76101ec565b6040805160208082528351818301528351919283929083019185019080838360005b838110156100e15781810151838201526020016100c9565b50505050905090810190601f16801561010e5780820380516001836020036101000a031916815260200191505b509250505060405180910390f35b34801561012857600080fd5b50610131610282565b60408051918252519081900360200190f35b34801561014f57600080fd5b50610158610288565b005b34801561016657600080fd5b5061013161029b565b34801561017b57600080fd5b506101316102a1565b34801561019057600080fd5b506101586102a7565b3480156101a557600080fd5b506101ae6102b5565b6040805173ffffffffffffffffffffffffffffffffffffffff9092168252519081900360200190f35b3480156101e357600080fd5b506101586102d1565b60008054604080516020601f60026000196101006001881615020190951694909404938401819004810282018101909252828152606093909290918301828280156102785780601f1061024d57610100808354040283529160200191610278565b820191906000526020600020905b81548152906001019060200180831161025b57829003601f168201915b5050505050905090565b60025490565b6003805460010190556102996102a7565b565b60035490565b60045490565b600454600380540203600255565b60015473ffffffffffffffffffffffffffffffffffffffff1690565b60048054600101905556fea165627a7a72305820eb12a5990a93c5163d350706a3f4a1d0020fe0cf8eb8835ecd2996ca750326570029a165627a7a72305820a728179965b5a0d189317ab703eb7b06f266e942dc1191f9bc73cbdff49f1de50029608060405260006002556000600355600060045534801561001f57600080fd5b5060405161046c38038061046c8339810180604052602081101561004257600080fd5b81019080805164010000000081111561005a57600080fd5b8201602081018481111561006d57600080fd5b815164010000000081118282018710171561008757600080fd5b505080519093506100a192506000915060208401906100ba565b505060018054600160a060020a03191633179055610155565b828054600181600116156101000203166002900490600052602060002090601f016020900481019282601f106100fb57805160ff1916838001178555610128565b82800160010185558215610128579182015b8281111561012857825182559160200191906001019061010d565b50610134929150610138565b5090565b61015291905b80821115610134576000815560010161013e565b90565b610308806101646000396000f3fe60806040526004361061008d5763ffffffff7c010000000000000000000000000000000000000000000000000000000060003504166317d7de7c81146100925780631a05f1531461011c578063227c278314610143578063271bf53f1461015a57806355d0ad181461016f5780636ea95dae14610184578063a74c2bb614610199578063e398a393146101d7575b600080fd5b34801561009e57600080fd5b506100a76101ec565b6040805160208082528351818301528351919283929083019185019080838360005b838110156100e15781810151838201526020016100c9565b50505050905090810190601f16801561010e5780820380516001836020036101000a031916815260200191505b509250505060405180910390f35b34801561012857600080fd5b50610131610282565b60408051918252519081900360200190f35b34801561014f57600080fd5b50610158610288565b005b34801561016657600080fd5b5061013161029b565b34801561017b57600080fd5b506101316102a1565b34801561019057600080fd5b506101586102a7565b3480156101a557600080fd5b506101ae6102b5565b6040805173ffffffffffffffffffffffffffffffffffffffff9092168252519081900360200190f35b3480156101e357600080fd5b506101586102d1565b60008054604080516020601f60026000196101006001881615020190951694909404938401819004810282018101909252828152606093909290918301828280156102785780601f1061024d57610100808354040283529160200191610278565b820191906000526020600020905b81548152906001019060200180831161025b57829003601f168201915b5050505050905090565b60025490565b6003805460010190556102996102a7565b565b60035490565b60045490565b600454600380540203600255565b60015473ffffffffffffffffffffffffffffffffffffffff1690565b60048054600101905556fea165627a7a72305820eb12a5990a93c5163d350706a3f4a1d0020fe0cf8eb8835ecd2996ca750326570029",
  "source": "pragma solidity ^0.5.0;\nimport \"./Account.sol\";\n\ncontract BioMedicalDataToken {\n\n    string public constant name = \"BioMedicalData\";\n    string public constant symbol = \"BMD\";\n    uint8 public constant decimals = 1;\n\n\n    event Transfer(address indexed from, address indexed to, uint tokens);\n\n    mapping(address => uint256) balances;\n    mapping(address => Account) accounts;\n    \n    uint256 totalSupply_;\n    using SafeMath for uint256;\n\n    //build token and initial owner/user\n    constructor(uint256 total, string memory n) public {  \n        totalSupply_ = total;\n        balances[msg.sender] = totalSupply_;\n        accounts[msg.sender] = new Account(n);\n    }  \n    \n    function totalSupply() public view returns (uint256) {\n        return totalSupply_;\n    }\n    \n    \n    function balanceOf(address tokenOwner) public view returns (uint) {\n        return balances[tokenOwner];\n    }\n    \n    //access the stored accounts\n    function Register(address addr, string memory n) public {\n        require (accounts[addr] == Account(0));\n        accounts[addr] = new Account(n);\n        balances[addr] = balances[addr].add(50);\n        totalSupply_ = totalSupply_.add(50);\n    }\n    \n    \n    function getName(address addr) public view returns (string memory) {\n        return accounts[addr].getName();\n    }\n    \n    function getShared(address addr) public view returns (uint) {\n        return accounts[addr].getShared();\n    }\n    \n    function getReceived(address addr) public view returns (uint) {\n        return accounts[addr].getReceived();\n    }\n    \n    function getScience(address addr) public view returns (uint) {\n        return accounts[addr].getScience();\n    }\n\n    \n    //transactions\n    function transferBioMedicalData(address sharer, address receiver) public returns (bool) {\n        //do some sharing\n        \n        //call some contract to get address of confirmations\n        //confirm(addr1, add2, addr3, addr4, addr5)\n        \n        require(30 <= balances[receiver]);\n        balances[receiver] = balances[receiver].sub(30);\n        balances[sharer] = balances[sharer].add(30);\n        emit Transfer(receiver, sharer, 30);\n        \n        accounts[sharer].ShareData();\n        accounts[receiver].ReceiveData();\n        \n        return true;\n    }\n    \n    //if users publish their finding using the data contributor provided, both users and contributors could receive tokens.\n    function incentiveForPublication(address sharer, address receiver) public returns (bool) {\n        balances[receiver] = balances[receiver].add(30);\n        balances[sharer] = balances[sharer].add(30);\n        return true;\n    }\n\n\n    //this could probably be done within the confirmation contract (yet to come)\n    //We incentivize participation in the network by asking other users to confirm\n    function confirm(address addr1, address addr2, address addr3, address addr4, address addr5) public returns (bool) {\n        balances[addr1] = balances[addr1].add(10);\n        balances[addr2] = balances[addr2].add(10);\n        balances[addr3] = balances[addr3].add(10);\n        balances[addr4] = balances[addr4].add(10);\n        balances[addr5] = balances[addr5].add(10);\n        totalSupply_ = totalSupply_.add(50);\n    }\n}\n\n\nlibrary SafeMath { \n    function sub(uint256 a, uint256 b) internal pure returns (uint256) {\n      assert(b <= a);\n      return a - b;\n    }\n    \n    function add(uint256 a, uint256 b) internal pure returns (uint256) {\n      uint256 c = a + b;\n      assert(c >= a);\n      return c;\n    }\n}",
  "sourcePath": "/Users/jenniferzhan/Desktop/data_sharing_contract/contracts/BiomedicalDataToken.sol",
  "compiler": {
    "name": "solc",
    "version": "0.5.0+commit.1d4f565a.Emscripten.clang"
  },
  "schemaVersion": "3.0.1",
  "updatedAt": "2021-06-24T06:11:45.518Z",
  "devdoc": {
    "methods": {}
  },
  "userdoc": {
    "methods": {}
  }
}