{
  "contractName": "Covid19usecase",
  "abi": [
    {
      "constant": true,
      "inputs": [
        {
          "name": "",
          "type": "uint256"
        }
      ],
      "name": "clauses",
      "outputs": [
        {
          "name": "id",
          "type": "uint256"
        },
        {
          "name": "content",
          "type": "string"
        },
        {
          "name": "agree",
          "type": "bool"
        }
      ],
      "payable": false,
      "stateMutability": "view",
      "type": "function",
      "signature": "0xca6009be"
    },
    {
      "constant": true,
      "inputs": [],
      "name": "State",
      "outputs": [
        {
          "name": "",
          "type": "uint8"
        }
      ],
      "payable": false,
      "stateMutability": "view",
      "type": "function",
      "signature": "0xf1b6dccd"
    },
    {
      "inputs": [],
      "payable": false,
      "stateMutability": "nonpayable",
      "type": "constructor",
      "signature": "constructor"
    },
    {
      "anonymous": false,
      "inputs": [
        {
          "indexed": false,
          "name": "id",
          "type": "uint256"
        },
        {
          "indexed": false,
          "name": "content",
          "type": "string"
        },
        {
          "indexed": false,
          "name": "agree",
          "type": "bool"
        }
      ],
      "name": "ClauseCreated",
      "type": "event",
      "signature": "0xa478e3ba1c41ddffd320b46a3e953ba655940caa0fbb2356f50123c1ca933686"
    },
    {
      "anonymous": false,
      "inputs": [
        {
          "indexed": false,
          "name": "id",
          "type": "uint256"
        }
      ],
      "name": "RequestSumbitted",
      "type": "event",
      "signature": "0xbdc0810d1cedabb980fd30e01e92a884f0e56653f2cc84cde0ea897a63238afb"
    },
    {
      "constant": true,
      "inputs": [],
      "name": "getClauseCount",
      "outputs": [
        {
          "name": "",
          "type": "uint256"
        }
      ],
      "payable": false,
      "stateMutability": "view",
      "type": "function",
      "signature": "0xf1fbd0cb"
    },
    {
      "constant": true,
      "inputs": [],
      "name": "getState",
      "outputs": [
        {
          "name": "",
          "type": "uint8"
        }
      ],
      "payable": false,
      "stateMutability": "view",
      "type": "function",
      "signature": "0x1865c57d"
    },
    {
      "constant": false,
      "inputs": [
        {
          "name": "_content",
          "type": "string"
        }
      ],
      "name": "createClause",
      "outputs": [],
      "payable": false,
      "stateMutability": "nonpayable",
      "type": "function",
      "signature": "0x99b915aa"
    },
    {
      "constant": false,
      "inputs": [
        {
          "name": "agree",
          "type": "bool"
        }
      ],
      "name": "agreeClause1",
      "outputs": [],
      "payable": false,
      "stateMutability": "nonpayable",
      "type": "function",
      "signature": "0x60cb989f"
    },
    {
      "constant": false,
      "inputs": [
        {
          "name": "_id",
          "type": "uint256"
        }
      ],
      "name": "submitRequest",
      "outputs": [],
      "payable": false,
      "stateMutability": "nonpayable",
      "type": "function",
      "signature": "0x1cdd1653"
    }
  ],
  "bytecode": "0x60806040526000805534801561001457600080fd5b5061004060c060405190810160405280609a8152602001610a59609a9139640100000000610105810204565b61006e6102406040519081016040528061020b8152602001610af361020b9139640100000000610105810204565b61009c6101e0604051908101604052806101bf815260200161089a6101bf9139640100000000610105810204565b6100c86101006040519081016040528060c88152602001610e4560c89139640100000000610105810204565b6100f6610180604051908101604052806101478152602001610cfe6101479139640100000000610105810204565b6001805460ff191690556102c5565b6000805460019081018083556040805160608101825282815260208082018781528284018790529386526002815291909420845181559151805192936101539390850192919091019061022a565b5060408201518160020160006101000a81548160ff0219169083151502179055509050507fa478e3ba1c41ddffd320b46a3e953ba655940caa0fbb2356f50123c1ca933686600054826000604051808481526020018060200183151515158152602001828103825284818151815260200191508051906020019080838360005b838110156101eb5781810151838201526020016101d3565b50505050905090810190601f1680156102185780820380516001836020036101000a031916815260200191505b5094505050505060405180910390a150565b828054600181600116156101000203166002900490600052602060002090601f016020900481019282601f1061026b57805160ff1916838001178555610298565b82800160010185558215610298579182015b8281111561029857825182559160200191906001019061027d565b506102a49291506102a8565b5090565b6102c291905b808211156102a457600081556001016102ae565b90565b6105c6806102d46000396000f3fe6080604052600436106100825763ffffffff7c01000000000000000000000000000000000000000000000000000000006000350416631865c57d81146100875780631cdd1653146100c057806360cb989f146100ec57806399b915aa14610118578063ca6009be146101cb578063f1b6dccd1461027f578063f1fbd0cb14610294575b600080fd5b34801561009357600080fd5b5061009c6102bb565b604051808260098111156100ac57fe5b60ff16815260200191505060405180910390f35b3480156100cc57600080fd5b506100ea600480360360208110156100e357600080fd5b50356102c5565b005b3480156100f857600080fd5b506100ea6004803603602081101561010f57600080fd5b50351515610309565b34801561012457600080fd5b506100ea6004803603602081101561013b57600080fd5b81019060208101813564010000000081111561015657600080fd5b82018360208201111561016857600080fd5b8035906020019184600183028401116401000000008311171561018a57600080fd5b91908080601f016020809104026020016040519081016040528093929190818152602001838380828437600092019190915250929550610320945050505050565b3480156101d757600080fd5b506101f5600480360360208110156101ee57600080fd5b5035610445565b604051808481526020018060200183151515158152602001828103825284818151815260200191508051906020019080838360005b8381101561024257818101518382015260200161022a565b50505050905090810190601f16801561026f5780820380516001836020036101000a031916815260200191505b5094505050505060405180910390f35b34801561028b57600080fd5b5061009c6104f3565b3480156102a057600080fd5b506102a96104fc565b60408051918252519081900360200190f35b60015460ff165b90565b6001805460ff191660041790556040805182815290517fbdc0810d1cedabb980fd30e01e92a884f0e56653f2cc84cde0ea897a63238afb916020908290030190a150565b801561031d576001805460ff191660021790555b50565b60008054600190810180835560408051606081018252828152602080820187815282840187905293865260028152919094208451815591518051929361036e93908501929190910190610502565b5060408201518160020160006101000a81548160ff0219169083151502179055509050507fa478e3ba1c41ddffd320b46a3e953ba655940caa0fbb2356f50123c1ca933686600054826000604051808481526020018060200183151515158152602001828103825284818151815260200191508051906020019080838360005b838110156104065781810151838201526020016103ee565b50505050905090810190601f1680156104335780820380516001836020036101000a031916815260200191505b5094505050505060405180910390a150565b60026020818152600092835260409283902080546001808301805487519281161561010002600019011695909504601f81018590048502820185019096528581529094919390929091908301828280156104e05780601f106104b5576101008083540402835291602001916104e0565b820191906000526020600020905b8154815290600101906020018083116104c357829003601f168201915b5050506002909301549192505060ff1683565b60015460ff1681565b60005490565b828054600181600116156101000203166002900490600052602060002090601f016020900481019282601f1061054357805160ff1916838001178555610570565b82800160010185558215610570579182015b82811115610570578251825591602001919060010190610555565b5061057c929150610580565b5090565b6102c291905b8082111561057c576000815560010161058656fea165627a7a723058203ccd76e6c2337486c149d33d0b83667d5c264781240b1a9c87d65391486447830029457863657074206173207265717569726564206279206c61772c2055736572287329207368616c6c206e6f74206772616e742061636365737320746f20746865204461746120746f20616e7920746869726420706172747920776974686f757420746865207072696f72207772697474656e207065726d697373696f6e207375626d69747465642062792074686520757365727320746f2074686520446174612041636365737320436f6d6d69747465652e205573657228732920616772656520746f207265706f727420616e7920756e617574686f72697a65642061636365737320757365287329206f7220646973636c6f73757265287329206f662074686520446174612062792074686520746869726420706172747920746f2074686520446174612041636365737320436f6d6d6974746565206e6f206c61746572207468616e203220627573696e657373206461797320616674657220646973636f766572792e20546865206f6363757272656e6365206f66206120446174612041636365737320496e636964656e742069732067726f756e6420666f72207465726d696e6174696f6e206f6620616e792061636365737320746f20446174612e466f7220656163682070726f706f7365642052657365617263682050726f6a6563742c205573657228732920616772656528732920746f207375626d69742061204461746120557365205265717565737420746f2074686520446174612041636365737320436f6d6d697474656520666f722072657669657720616e6420617070726f76616c20746f206163636573732074686520446174612e5573657228732920616772656528732920746f206e6f7420617474656d707420746f20636f6e7461637420616e7920696e646976696475616c732077686f2061726520746865207375626a65637473206f662074686520446174612c20616e79206b6e6f776e206c6976696e672072656c6174697665732c20616e79204461746120436f6e7472696275746f72732c206f72206865616c7468636172652070726f76696465727320756e6c657373207265717569726564206279206c617720746f206d61696e7461696e207075626c6963206865616c746820616e64207361666574792e205573657228732920616772656520746f207265706f727420616e7920756e617574686f72697a65642061636365737320757365287329206f7220646973636c6f73757265287329206f66207468652044617461206279206f746865722075736572732028636f6c6c61626f7261746f722920746f2074686520446174612041636365737320436f6d6d6974746565206e6f206c61746572207468616e203220627573696e657373206461797320616674657220646973636f766572792e20546865206f6363757272656e6365206f66206120446174612041636365737320496e636964656e742069732067726f756e6420666f722073757370656e73696f6e206f66206669667465656e2064617973206f6620616e792061636365737320746f20446174612e5573657228732920616772656528732920746f207265636f676e697a6520746865206566666f72742074686174204461746120436f6e7472696275746f72287329206d61646520696e20636f6c6c656374696e6720616e642070726f766964696e6720746865204461746120616e6420616c6c6f772074686520666f6c6c6f77696e6720696e666f726d6174696f6e20696e2074686520617070726f766564204461746120557365205265717565737420746f206265206d616465207075626c69636c7920617661696c61626c653a206e6f6e2d636f6e666964656e7469616c2072657365617263682073746174656d656e74206f66207468652052657365617263682050726f6a6563742c2050726f6a656374205469746c652c205573657273e28099206e616d657320616e6420416363657373696e6720496e737469747574696f6e28732954686520446174612055736520526571756573742077696c6c2072656d61696e20696e2065666665637420666f72206120706572696f64206f662066697665202835292079656172732066726f6d20746865204461746120557365205265717565737420456666656374697665204461746520616e642077696c6c206175746f6d61746963616c6c79206578706972652061742074686520656e64206f66207468697320706572696f6420756e6c657373207465726d696e61746564206f722072656e657765642e",
  "source": "pragma solidity ^0.5.0;\n//import \"./BiomedicalDataToken.sol\";\n\ncontract Covid19usecase{\n  uint clauseCount = 0;\n\n  struct Clause {\n    uint id;\n    string content;\n    bool agree;\n\n  }\n\n  enum contractState { \n    NotReady, Created, ReadyforRequireRequest, ReadyforSubmitRequest, ReadyforReview, Active, Inactive, Aborted, Terminate, Expire\n  } \n\n  contractState public State;\n\n\n  constructor() public {\n    createClause(\"For each proposed Research Project, User(s) agree(s) to submit a Data Use Request to the Data Access Committee for review and approval to access the Data.\");\n    createClause(\"User(s) agree(s) to not attempt to contact any individuals who are the subjects of the Data, any known living relatives, any Data Contributors, or healthcare providers unless required by law to maintain public health and safety. User(s) agree to report any unauthorized access use(s) or disclosure(s) of the Data by other users (collaborator) to the Data Access Committee no later than 2 business days after discovery. The occurrence of a Data Access Incident is ground for suspension of fifteen days of any access to Data.\");\n    createClause(\"Except as required by law, User(s) shall not grant access to the Data to any third party without the prior written permission submitted by the users to the Data Access Committee. User(s) agree to report any unauthorized access use(s) or disclosure(s) of the Data by the third party to the Data Access Committee no later than 2 business days after discovery. The occurrence of a Data Access Incident is ground for termination of any access to Data.\");\n    createClause(\"The Data Use Request will remain in effect for a period of five (5) years from the Data Use Request Effective Date and will automatically expire at the end of this period unless terminated or renewed.\");\n    createClause(\"User(s) agree(s) to recognize the effort that Data Contributor(s) made in collecting and providing the Data and allow the following information in the approved Data Use Request to be made publicly available: non-confidential research statement of the Research Project, Project Title, Users’ names and Accessing Institution(s)\");\n    State=contractState.NotReady;\n  }\n\n  mapping(uint => Clause) public clauses;\n\n  event ClauseCreated(\n    uint id,\n    string content,\n    bool agree\n  );\n\n  event RequestSumbitted(\n    uint id\n  );\n\n  function getClauseCount() public view returns (uint){\n    return clauseCount;\n  }\n\n  function getState() public view returns (contractState){\n    return State;\n  }\n\n  function createClause(string memory _content) public {\n    clauseCount ++;\n    clauses[clauseCount] = Clause(clauseCount, _content, false);\n    emit ClauseCreated(clauseCount, _content, false);\n  }\n\n  function agreeClause1(bool agree) public {\n    if(agree) {\n      State=contractState.ReadyforRequireRequest;\n    }\n  }\n\n  function submitRequest(uint _id) public {\n    State=contractState.ReadyforReview;\n    emit RequestSumbitted(_id);\n  }\n}",
  "sourcePath": "/Users/jenniferzhan/Desktop/data_sharing_contract/contracts/Covid19usecase.sol",
  "compiler": {
    "name": "solc",
    "version": "0.5.0+commit.1d4f565a.Emscripten.clang"
  },
  "schemaVersion": "3.0.1",
  "updatedAt": "2021-06-30T07:59:41.130Z",
  "devdoc": {
    "methods": {}
  },
  "userdoc": {
    "methods": {}
  }
}